{
  "_format": "hh3-artifact-1",
  "contractName": "StateDAO",
  "sourceName": "contracts/governance/StateDAO.sol",
  "abi": [
    {
      "inputs": [
        {
          "internalType": "address[]",
          "name": "initialMembers",
          "type": "address[]"
        },
        {
          "internalType": "uint256",
          "name": "_votingPeriodInSeconds",
          "type": "uint256"
        },
        {
          "internalType": "uint256",
          "name": "_quorumPercentage",
          "type": "uint256"
        }
      ],
      "stateMutability": "nonpayable",
      "type": "constructor"
    },
    {
      "inputs": [
        {
          "internalType": "address",
          "name": "owner",
          "type": "address"
        }
      ],
      "name": "OwnableInvalidOwner",
      "type": "error"
    },
    {
      "inputs": [
        {
          "internalType": "address",
          "name": "account",
          "type": "address"
        }
      ],
      "name": "OwnableUnauthorizedAccount",
      "type": "error"
    },
    {
      "anonymous": false,
      "inputs": [
        {
          "indexed": true,
          "internalType": "address",
          "name": "previousOwner",
          "type": "address"
        },
        {
          "indexed": true,
          "internalType": "address",
          "name": "newOwner",
          "type": "address"
        }
      ],
      "name": "OwnershipTransferred",
      "type": "event"
    },
    {
      "anonymous": false,
      "inputs": [
        {
          "indexed": false,
          "internalType": "uint256",
          "name": "id",
          "type": "uint256"
        },
        {
          "indexed": true,
          "internalType": "address",
          "name": "proposer",
          "type": "address"
        },
        {
          "indexed": false,
          "internalType": "string",
          "name": "description",
          "type": "string"
        },
        {
          "indexed": false,
          "internalType": "address",
          "name": "target",
          "type": "address"
        },
        {
          "indexed": false,
          "internalType": "uint256",
          "name": "deadline",
          "type": "uint256"
        }
      ],
      "name": "ProposalCreated",
      "type": "event"
    },
    {
      "anonymous": false,
      "inputs": [
        {
          "indexed": true,
          "internalType": "uint256",
          "name": "proposalId",
          "type": "uint256"
        }
      ],
      "name": "ProposalExecuted",
      "type": "event"
    },
    {
      "anonymous": false,
      "inputs": [
        {
          "indexed": true,
          "internalType": "uint256",
          "name": "proposalId",
          "type": "uint256"
        },
        {
          "indexed": true,
          "internalType": "address",
          "name": "voter",
          "type": "address"
        },
        {
          "indexed": false,
          "internalType": "bool",
          "name": "support",
          "type": "bool"
        }
      ],
      "name": "Voted",
      "type": "event"
    },
    {
      "inputs": [
        {
          "internalType": "address",
          "name": "member",
          "type": "address"
        }
      ],
      "name": "addMember",
      "outputs": [],
      "stateMutability": "nonpayable",
      "type": "function"
    },
    {
      "inputs": [
        {
          "internalType": "address",
          "name": "target",
          "type": "address"
        },
        {
          "internalType": "bytes",
          "name": "_payload",
          "type": "bytes"
        },
        {
          "internalType": "string",
          "name": "description",
          "type": "string"
        }
      ],
      "name": "createProposal",
      "outputs": [],
      "stateMutability": "nonpayable",
      "type": "function"
    },
    {
      "inputs": [
        {
          "internalType": "uint256",
          "name": "proposalId",
          "type": "uint256"
        }
      ],
      "name": "execute",
      "outputs": [],
      "stateMutability": "nonpayable",
      "type": "function"
    },
    {
      "inputs": [
        {
          "internalType": "uint256",
          "name": "",
          "type": "uint256"
        },
        {
          "internalType": "address",
          "name": "",
          "type": "address"
        }
      ],
      "name": "hasVoted",
      "outputs": [
        {
          "internalType": "bool",
          "name": "",
          "type": "bool"
        }
      ],
      "stateMutability": "view",
      "type": "function"
    },
    {
      "inputs": [
        {
          "internalType": "address",
          "name": "",
          "type": "address"
        }
      ],
      "name": "isMember",
      "outputs": [
        {
          "internalType": "bool",
          "name": "",
          "type": "bool"
        }
      ],
      "stateMutability": "view",
      "type": "function"
    },
    {
      "inputs": [],
      "name": "memberCount",
      "outputs": [
        {
          "internalType": "uint256",
          "name": "",
          "type": "uint256"
        }
      ],
      "stateMutability": "view",
      "type": "function"
    },
    {
      "inputs": [],
      "name": "nextProposalId",
      "outputs": [
        {
          "internalType": "uint256",
          "name": "",
          "type": "uint256"
        }
      ],
      "stateMutability": "view",
      "type": "function"
    },
    {
      "inputs": [],
      "name": "owner",
      "outputs": [
        {
          "internalType": "address",
          "name": "",
          "type": "address"
        }
      ],
      "stateMutability": "view",
      "type": "function"
    },
    {
      "inputs": [
        {
          "internalType": "uint256",
          "name": "",
          "type": "uint256"
        }
      ],
      "name": "proposals",
      "outputs": [
        {
          "internalType": "uint256",
          "name": "id",
          "type": "uint256"
        },
        {
          "internalType": "address",
          "name": "proposer",
          "type": "address"
        },
        {
          "internalType": "string",
          "name": "description",
          "type": "string"
        },
        {
          "internalType": "address",
          "name": "target",
          "type": "address"
        },
        {
          "internalType": "bytes",
          "name": "payload",
          "type": "bytes"
        },
        {
          "internalType": "uint256",
          "name": "deadline",
          "type": "uint256"
        },
        {
          "internalType": "uint256",
          "name": "yesVotes",
          "type": "uint256"
        },
        {
          "internalType": "uint256",
          "name": "noVotes",
          "type": "uint256"
        },
        {
          "internalType": "bool",
          "name": "executed",
          "type": "bool"
        }
      ],
      "stateMutability": "view",
      "type": "function"
    },
    {
      "inputs": [],
      "name": "quorumPercentage",
      "outputs": [
        {
          "internalType": "uint256",
          "name": "",
          "type": "uint256"
        }
      ],
      "stateMutability": "view",
      "type": "function"
    },
    {
      "inputs": [
        {
          "internalType": "address",
          "name": "member",
          "type": "address"
        }
      ],
      "name": "removeMember",
      "outputs": [],
      "stateMutability": "nonpayable",
      "type": "function"
    },
    {
      "inputs": [],
      "name": "renounceOwnership",
      "outputs": [],
      "stateMutability": "nonpayable",
      "type": "function"
    },
    {
      "inputs": [
        {
          "internalType": "address",
          "name": "newOwner",
          "type": "address"
        }
      ],
      "name": "transferOwnership",
      "outputs": [],
      "stateMutability": "nonpayable",
      "type": "function"
    },
    {
      "inputs": [
        {
          "internalType": "uint256",
          "name": "proposalId",
          "type": "uint256"
        },
        {
          "internalType": "bool",
          "name": "support",
          "type": "bool"
        }
      ],
      "name": "vote",
      "outputs": [],
      "stateMutability": "nonpayable",
      "type": "function"
    },
    {
      "inputs": [],
      "name": "votingPeriod",
      "outputs": [
        {
          "internalType": "uint256",
          "name": "",
          "type": "uint256"
        }
      ],
      "stateMutability": "view",
      "type": "function"
    },
    {
      "stateMutability": "payable",
      "type": "receive"
    }
  ],
  "bytecode": "0x608060405234801561000f575f5ffd5b5060405161137138038061137183398101604081905261002e91610146565b338061005357604051631e4fbdf760e01b81525f600482015260240160405180910390fd5b61005c816100c8565b505f5b83518110156100b7576001805f86848151811061007e5761007e610222565b6020908102919091018101516001600160a01b031682528101919091526040015f20805460ff191691151591909117905560010161005f565b509151600255600655600755610236565b5f80546001600160a01b038381166001600160a01b0319831681178455604051919092169283917f8be0079c531659141344cd1fd0a4f28419497f9722a3daafe3b4186f6b6457e09190a35050565b634e487b7160e01b5f52604160045260245ffd5b80516001600160a01b0381168114610141575f5ffd5b919050565b5f5f5f60608486031215610158575f5ffd5b83516001600160401b0381111561016d575f5ffd5b8401601f8101861361017d575f5ffd5b80516001600160401b0381111561019657610196610117565b604051600582901b90603f8201601f191681016001600160401b03811182821017156101c4576101c4610117565b6040529182526020818401810192908101898411156101e1575f5ffd5b6020850194505b83851015610207576101f98561012b565b8152602094850194016101e8565b50602088015160409098015190999798509695505050505050565b634e487b7160e01b5f52603260045260245ffd5b61112e806102435f395ff3fe6080604052600436106100e7575f3560e01c806364bd0cb211610087578063c9d27afe11610057578063c9d27afe14610282578063ca6d56dc146102a1578063f2fde38b146102c0578063fe0d94c1146102df575f5ffd5b806364bd0cb2146101fb578063715018a61461021a5780638da5cb5b1461022e578063a230c52414610254575f5ffd5b806311aee380116100c257806311aee380146101735780632ab09d1414610188578063438596321461019d5780634fa76ec9146101e6575f5ffd5b8063013cf08b146100f257806302a251a31461012f5780630b1ca49a14610152575f5ffd5b366100ee57005b5f5ffd5b3480156100fd575f5ffd5b5061011161010c366004610be6565b6102fe565b60405161012699989796959493929190610c2b565b60405180910390f35b34801561013a575f5ffd5b5061014460065481565b604051908152602001610126565b34801561015d575f5ffd5b5061017161016c366004610cbd565b61046d565b005b34801561017e575f5ffd5b5061014460025481565b348015610193575f5ffd5b5061014460035481565b3480156101a8575f5ffd5b506101d66101b7366004610cdd565b600560209081525f928352604080842090915290825290205460ff1681565b6040519015158152602001610126565b3480156101f1575f5ffd5b5061014460075481565b348015610206575f5ffd5b50610171610215366004610d92565b6104ea565b348015610225575f5ffd5b5061017161069e565b348015610239575f5ffd5b505f546040516001600160a01b039091168152602001610126565b34801561025f575f5ffd5b506101d661026e366004610cbd565b60016020525f908152604090205460ff1681565b34801561028d575f5ffd5b5061017161029c366004610e2c565b6106b1565b3480156102ac575f5ffd5b506101716102bb366004610cbd565b610831565b3480156102cb575f5ffd5b506101716102da366004610cbd565b6108c6565b3480156102ea575f5ffd5b506101716102f9366004610be6565b610903565b60046020525f908152604090208054600182015460028301805492936001600160a01b039092169261032f90610e5e565b80601f016020809104026020016040519081016040528092919081815260200182805461035b90610e5e565b80156103a65780601f1061037d576101008083540402835291602001916103a6565b820191905f5260205f20905b81548152906001019060200180831161038957829003601f168201915b505050600384015460048501805494956001600160a01b039092169491935091506103d090610e5e565b80601f01602080910402602001604051908101604052809291908181526020018280546103fc90610e5e565b80156104475780601f1061041e57610100808354040283529160200191610447565b820191905f5260205f20905b81548152906001019060200180831161042a57829003601f168201915b505050506005830154600684015460078501546008909501549394919390925060ff1689565b610475610b6b565b6001600160a01b0381165f9081526001602052604090205460ff166104b55760405162461bcd60e51b81526004016104ac90610e96565b60405180910390fd5b6001600160a01b0381165f908152600160205260408120805460ff1916905560028054916104e283610ed0565b919050555050565b335f9081526001602052604090205460ff166105185760405162461bcd60e51b81526004016104ac90610e96565b60035460408051610120810182528281523360208201529081018390526001600160a01b03851660608201526080810184905260065460a082019061055d9042610ee5565b81525f602080830182905260408084018390526060909301829052848252600481529082902083518155908301516001820180546001600160a01b0319166001600160a01b039092169190911790559082015160028201906105bf9082610f4a565b5060608201516003820180546001600160a01b0319166001600160a01b03909216919091179055608082015160048201906105fa9082610f4a565b5060a0820151600582015560c0820151600682015560e08201516007820155610100909101516008909101805460ff191691151591909117905560038054905f61064383611005565b90915550505f818152600460205260409081902060050154905133917f36ef39b15ae87208645c010139b1c8b7b25a358bb68989fefcc82b1e0754bcbd9161069091859187918a9161101d565b60405180910390a250505050565b6106a6610b6b565b6106af5f610b97565b565b335f9081526001602052604090205460ff166106df5760405162461bcd60e51b81526004016104ac90610e96565b5f8281526004602052604090206005810154421061073f5760405162461bcd60e51b815260206004820152601760248201527f566f74696e6720706572696f642068617320656e64656400000000000000000060448201526064016104ac565b5f83815260056020908152604080832033845290915290205460ff16156107985760405162461bcd60e51b815260206004820152600d60248201526c105b1c9958591e481d9bdd1959609a1b60448201526064016104ac565b5f8381526005602090815260408083203384529091529020805460ff1916600117905581156107dc57600681018054905f6107d283611005565b91905055506107f3565b600781018054905f6107ed83611005565b91905055505b6040518215158152339084907ff2913dbe661ee2acc4a046d8fbcdc792373bda34c41c6086484b5345e5785e5f9060200160405180910390a3505050565b610839610b6b565b6001600160a01b0381165f9081526001602052604090205460ff16156108945760405162461bcd60e51b815260206004820152601060248201526f20b63932b0b23c90309036b2b6b132b960811b60448201526064016104ac565b6001600160a01b0381165f9081526001602081905260408220805460ff1916909117905560028054916104e283611005565b6108ce610b6b565b6001600160a01b0381166108f757604051631e4fbdf760e01b81525f60048201526024016104ac565b61090081610b97565b50565b5f81815260046020526040902060058101544210156109645760405162461bcd60e51b815260206004820152601f60248201527f566f74696e6720706572696f6420686173206e6f7420656e646564207965740060448201526064016104ac565b600881015460ff16156109b95760405162461bcd60e51b815260206004820152601960248201527f50726f706f73616c20616c72656164792065786563757465640000000000000060448201526064016104ac565b5f816007015482600601546109ce9190610ee5565b905060075481836006015460646109e59190611051565b6109ef9190611068565b1015610a325760405162461bcd60e51b8152602060048201526012602482015271145d5bdc9d5b481b9bdd081c995858da195960721b60448201526064016104ac565b8160070154826006015411610a7b5760405162461bcd60e51b815260206004820152600f60248201526e141c9bdc1bdcd85b0819985a5b1959608a1b60448201526064016104ac565b60088201805460ff1916600117905560038201546040515f916001600160a01b031690610aac906004860190611087565b5f604051808303815f865af19150503d805f8114610ae5576040519150601f19603f3d011682016040523d82523d5f602084013e610aea565b606091505b5050905080610b3b5760405162461bcd60e51b815260206004820152601960248201527f50726f706f73616c20657865637574696f6e206661696c65640000000000000060448201526064016104ac565b60405184907f712ae1383f79ac853f8d882153778e0260ef8f03b504e2866e0593e04d2b291f905f90a250505050565b5f546001600160a01b031633146106af5760405163118cdaa760e01b81523360048201526024016104ac565b5f80546001600160a01b038381166001600160a01b0319831681178455604051919092169283917f8be0079c531659141344cd1fd0a4f28419497f9722a3daafe3b4186f6b6457e09190a35050565b5f60208284031215610bf6575f5ffd5b5035919050565b5f81518084528060208401602086015e5f602082860101526020601f19601f83011685010191505092915050565b8981526001600160a01b0389166020820152610120604082018190525f90610c559083018a610bfd565b6001600160a01b03891660608401528281036080840152610c768189610bfd565b9150508560a08301528460c08301528360e08301528215156101008301529a9950505050505050505050565b80356001600160a01b0381168114610cb8575f5ffd5b919050565b5f60208284031215610ccd575f5ffd5b610cd682610ca2565b9392505050565b5f5f60408385031215610cee575f5ffd5b82359150610cfe60208401610ca2565b90509250929050565b634e487b7160e01b5f52604160045260245ffd5b5f5f67ffffffffffffffff841115610d3557610d35610d07565b50604051601f19601f85018116603f0116810181811067ffffffffffffffff82111715610d6457610d64610d07565b604052838152905080828401851015610d7b575f5ffd5b838360208301375f60208583010152509392505050565b5f5f5f60608486031215610da4575f5ffd5b610dad84610ca2565b9250602084013567ffffffffffffffff811115610dc8575f5ffd5b8401601f81018613610dd8575f5ffd5b610de786823560208401610d1b565b925050604084013567ffffffffffffffff811115610e03575f5ffd5b8401601f81018613610e13575f5ffd5b610e2286823560208401610d1b565b9150509250925092565b5f5f60408385031215610e3d575f5ffd5b8235915060208301358015158114610e53575f5ffd5b809150509250929050565b600181811c90821680610e7257607f821691505b602082108103610e9057634e487b7160e01b5f52602260045260245ffd5b50919050565b6020808252600c908201526b2737ba10309036b2b6b132b960a11b604082015260600190565b634e487b7160e01b5f52601160045260245ffd5b5f81610ede57610ede610ebc565b505f190190565b80820180821115610ef857610ef8610ebc565b92915050565b601f821115610f4557805f5260205f20601f840160051c81016020851015610f235750805b601f840160051c820191505b81811015610f42575f8155600101610f2f565b50505b505050565b815167ffffffffffffffff811115610f6457610f64610d07565b610f7881610f728454610e5e565b84610efe565b6020601f821160018114610faa575f8315610f935750848201515b5f19600385901b1c1916600184901b178455610f42565b5f84815260208120601f198516915b82811015610fd95787850151825560209485019460019092019101610fb9565b5084821015610ff657868401515f19600387901b60f8161c191681555b50505050600190811b01905550565b5f6001820161101657611016610ebc565b5060010190565b848152608060208201525f6110356080830186610bfd565b6001600160a01b03949094166040830152506060015292915050565b8082028115828204841417610ef857610ef8610ebc565b5f8261108257634e487b7160e01b5f52601260045260245ffd5b500490565b5f5f835461109481610e5e565b6001821680156110ab57600181146110c0576110ed565b60ff19831686528115158202860193506110ed565b865f5260205f205f5b838110156110e5578154888201526001909101906020016110c9565b505081860193505b50919594505050505056fea264697066735822122079c724083cac399dca6d36c65e5d3ef9d8c8ee2806d924d7a0c45a9dfe5e431964736f6c634300081c0033",
  "linkReferences": {},
  "deployedLinkReferences": {},
  "immutableReferences": {},
  "inputSourceName": "project/contracts/governance/StateDAO.sol",
  "buildInfoId": "solc-0_8_28-e3fbe62a74c08dc28e96e7df6117f35393dae882"
}