{
  "_format": "hh3-artifact-1",
  "contractName": "StateDAO",
  "sourceName": "contracts/governance/StateDAO.sol",
  "abi": [
    {
      "inputs": [
        {
          "internalType": "address[]",
          "name": "initialMembers",
          "type": "address[]"
        },
        {
          "internalType": "uint256",
          "name": "_votingPeriodInSeconds",
          "type": "uint256"
        },
        {
          "internalType": "uint256",
          "name": "_quorumPercentage",
          "type": "uint256"
        }
      ],
      "stateMutability": "nonpayable",
      "type": "constructor"
    },
    {
      "inputs": [
        {
          "internalType": "address",
          "name": "owner",
          "type": "address"
        }
      ],
      "name": "OwnableInvalidOwner",
      "type": "error"
    },
    {
      "inputs": [
        {
          "internalType": "address",
          "name": "account",
          "type": "address"
        }
      ],
      "name": "OwnableUnauthorizedAccount",
      "type": "error"
    },
    {
      "anonymous": false,
      "inputs": [
        {
          "indexed": true,
          "internalType": "address",
          "name": "member",
          "type": "address"
        }
      ],
      "name": "MemberAdded",
      "type": "event"
    },
    {
      "anonymous": false,
      "inputs": [
        {
          "indexed": true,
          "internalType": "address",
          "name": "member",
          "type": "address"
        }
      ],
      "name": "MemberRemoved",
      "type": "event"
    },
    {
      "anonymous": false,
      "inputs": [
        {
          "indexed": true,
          "internalType": "address",
          "name": "previousOwner",
          "type": "address"
        },
        {
          "indexed": true,
          "internalType": "address",
          "name": "newOwner",
          "type": "address"
        }
      ],
      "name": "OwnershipTransferred",
      "type": "event"
    },
    {
      "anonymous": false,
      "inputs": [
        {
          "indexed": false,
          "internalType": "uint256",
          "name": "id",
          "type": "uint256"
        },
        {
          "indexed": true,
          "internalType": "address",
          "name": "proposer",
          "type": "address"
        },
        {
          "indexed": false,
          "internalType": "string",
          "name": "description",
          "type": "string"
        },
        {
          "indexed": false,
          "internalType": "address",
          "name": "target",
          "type": "address"
        },
        {
          "indexed": false,
          "internalType": "uint256",
          "name": "deadline",
          "type": "uint256"
        }
      ],
      "name": "ProposalCreated",
      "type": "event"
    },
    {
      "anonymous": false,
      "inputs": [
        {
          "indexed": true,
          "internalType": "uint256",
          "name": "proposalId",
          "type": "uint256"
        }
      ],
      "name": "ProposalExecuted",
      "type": "event"
    },
    {
      "anonymous": false,
      "inputs": [
        {
          "indexed": true,
          "internalType": "uint256",
          "name": "proposalId",
          "type": "uint256"
        },
        {
          "indexed": true,
          "internalType": "enum SeasonOracle.Season",
          "name": "season",
          "type": "uint8"
        },
        {
          "indexed": true,
          "internalType": "uint256",
          "name": "seasonNumber",
          "type": "uint256"
        },
        {
          "indexed": false,
          "internalType": "uint256",
          "name": "mintAmount",
          "type": "uint256"
        }
      ],
      "name": "SeasonMintProposalCreated",
      "type": "event"
    },
    {
      "anonymous": false,
      "inputs": [
        {
          "indexed": true,
          "internalType": "uint256",
          "name": "proposalId",
          "type": "uint256"
        },
        {
          "indexed": true,
          "internalType": "address",
          "name": "voter",
          "type": "address"
        },
        {
          "indexed": false,
          "internalType": "bool",
          "name": "support",
          "type": "bool"
        }
      ],
      "name": "Voted",
      "type": "event"
    },
    {
      "inputs": [
        {
          "internalType": "address",
          "name": "member",
          "type": "address"
        }
      ],
      "name": "addMember",
      "outputs": [],
      "stateMutability": "nonpayable",
      "type": "function"
    },
    {
      "inputs": [],
      "name": "centralBank",
      "outputs": [
        {
          "internalType": "address",
          "name": "",
          "type": "address"
        }
      ],
      "stateMutability": "view",
      "type": "function"
    },
    {
      "inputs": [],
      "name": "checkAndCreateSeasonProposal",
      "outputs": [],
      "stateMutability": "nonpayable",
      "type": "function"
    },
    {
      "inputs": [
        {
          "internalType": "address",
          "name": "target",
          "type": "address"
        },
        {
          "internalType": "bytes",
          "name": "_payload",
          "type": "bytes"
        },
        {
          "internalType": "string",
          "name": "description",
          "type": "string"
        }
      ],
      "name": "createProposal",
      "outputs": [],
      "stateMutability": "nonpayable",
      "type": "function"
    },
    {
      "inputs": [
        {
          "internalType": "uint256",
          "name": "proposalId",
          "type": "uint256"
        }
      ],
      "name": "execute",
      "outputs": [],
      "stateMutability": "nonpayable",
      "type": "function"
    },
    {
      "inputs": [
        {
          "internalType": "uint256",
          "name": "",
          "type": "uint256"
        },
        {
          "internalType": "address",
          "name": "",
          "type": "address"
        }
      ],
      "name": "hasVoted",
      "outputs": [
        {
          "internalType": "bool",
          "name": "",
          "type": "bool"
        }
      ],
      "stateMutability": "view",
      "type": "function"
    },
    {
      "inputs": [
        {
          "internalType": "address",
          "name": "",
          "type": "address"
        }
      ],
      "name": "isMember",
      "outputs": [
        {
          "internalType": "bool",
          "name": "",
          "type": "bool"
        }
      ],
      "stateMutability": "view",
      "type": "function"
    },
    {
      "inputs": [],
      "name": "memberCount",
      "outputs": [
        {
          "internalType": "uint256",
          "name": "",
          "type": "uint256"
        }
      ],
      "stateMutability": "view",
      "type": "function"
    },
    {
      "inputs": [],
      "name": "nextProposalId",
      "outputs": [
        {
          "internalType": "uint256",
          "name": "",
          "type": "uint256"
        }
      ],
      "stateMutability": "view",
      "type": "function"
    },
    {
      "inputs": [],
      "name": "owner",
      "outputs": [
        {
          "internalType": "address",
          "name": "",
          "type": "address"
        }
      ],
      "stateMutability": "view",
      "type": "function"
    },
    {
      "inputs": [
        {
          "internalType": "uint256",
          "name": "",
          "type": "uint256"
        }
      ],
      "name": "proposals",
      "outputs": [
        {
          "internalType": "uint256",
          "name": "id",
          "type": "uint256"
        },
        {
          "internalType": "address",
          "name": "proposer",
          "type": "address"
        },
        {
          "internalType": "string",
          "name": "description",
          "type": "string"
        },
        {
          "internalType": "address",
          "name": "target",
          "type": "address"
        },
        {
          "internalType": "bytes",
          "name": "payload",
          "type": "bytes"
        },
        {
          "internalType": "uint256",
          "name": "deadline",
          "type": "uint256"
        },
        {
          "internalType": "uint256",
          "name": "yesVotes",
          "type": "uint256"
        },
        {
          "internalType": "uint256",
          "name": "noVotes",
          "type": "uint256"
        },
        {
          "internalType": "bool",
          "name": "executed",
          "type": "bool"
        }
      ],
      "stateMutability": "view",
      "type": "function"
    },
    {
      "inputs": [],
      "name": "quorumPercentage",
      "outputs": [
        {
          "internalType": "uint256",
          "name": "",
          "type": "uint256"
        }
      ],
      "stateMutability": "view",
      "type": "function"
    },
    {
      "inputs": [
        {
          "internalType": "address",
          "name": "member",
          "type": "address"
        }
      ],
      "name": "removeMember",
      "outputs": [],
      "stateMutability": "nonpayable",
      "type": "function"
    },
    {
      "inputs": [],
      "name": "renounceOwnership",
      "outputs": [],
      "stateMutability": "nonpayable",
      "type": "function"
    },
    {
      "inputs": [],
      "name": "seasonMintAmount",
      "outputs": [
        {
          "internalType": "uint256",
          "name": "",
          "type": "uint256"
        }
      ],
      "stateMutability": "view",
      "type": "function"
    },
    {
      "inputs": [],
      "name": "seasonOracle",
      "outputs": [
        {
          "internalType": "contract SeasonOracle",
          "name": "",
          "type": "address"
        }
      ],
      "stateMutability": "view",
      "type": "function"
    },
    {
      "inputs": [
        {
          "internalType": "uint256",
          "name": "",
          "type": "uint256"
        }
      ],
      "name": "seasonProposalCreated",
      "outputs": [
        {
          "internalType": "bool",
          "name": "",
          "type": "bool"
        }
      ],
      "stateMutability": "view",
      "type": "function"
    },
    {
      "inputs": [
        {
          "internalType": "address",
          "name": "_centralBank",
          "type": "address"
        }
      ],
      "name": "setCentralBank",
      "outputs": [],
      "stateMutability": "nonpayable",
      "type": "function"
    },
    {
      "inputs": [
        {
          "internalType": "uint256",
          "name": "_amount",
          "type": "uint256"
        }
      ],
      "name": "setSeasonMintAmount",
      "outputs": [],
      "stateMutability": "nonpayable",
      "type": "function"
    },
    {
      "inputs": [
        {
          "internalType": "address",
          "name": "_seasonOracle",
          "type": "address"
        }
      ],
      "name": "setSeasonOracle",
      "outputs": [],
      "stateMutability": "nonpayable",
      "type": "function"
    },
    {
      "inputs": [
        {
          "internalType": "address",
          "name": "newOwner",
          "type": "address"
        }
      ],
      "name": "transferOwnership",
      "outputs": [],
      "stateMutability": "nonpayable",
      "type": "function"
    },
    {
      "inputs": [
        {
          "internalType": "uint256",
          "name": "proposalId",
          "type": "uint256"
        },
        {
          "internalType": "bool",
          "name": "support",
          "type": "bool"
        }
      ],
      "name": "vote",
      "outputs": [],
      "stateMutability": "nonpayable",
      "type": "function"
    },
    {
      "inputs": [],
      "name": "votingPeriod",
      "outputs": [
        {
          "internalType": "uint256",
          "name": "",
          "type": "uint256"
        }
      ],
      "stateMutability": "view",
      "type": "function"
    },
    {
      "stateMutability": "payable",
      "type": "receive"
    }
  ],
  "bytecode": "0x6080604052683635c9adc5dea00000600b5534801561001c575f5ffd5b50604051611f7b380380611f7b83398101604081905261003b916101ae565b338061006057604051631e4fbdf760e01b81525f600482015260240160405180910390fd5b61006981610130565b505f5b835181101561011f576001805f86848151811061008b5761008b61028a565b60200260200101516001600160a01b03166001600160a01b031681526020019081526020015f205f6101000a81548160ff0219169083151502179055508381815181106100da576100da61028a565b60200260200101516001600160a01b03167fb251eb052afc73ffd02ffe85ad79990a8b3fed60d76dbc2fa2fdd7123dffd91460405160405180910390a260010161006c565b50915160025560065560075561029e565b5f80546001600160a01b038381166001600160a01b0319831681178455604051919092169283917f8be0079c531659141344cd1fd0a4f28419497f9722a3daafe3b4186f6b6457e09190a35050565b634e487b7160e01b5f52604160045260245ffd5b80516001600160a01b03811681146101a9575f5ffd5b919050565b5f5f5f606084860312156101c0575f5ffd5b83516001600160401b038111156101d5575f5ffd5b8401601f810186136101e5575f5ffd5b80516001600160401b038111156101fe576101fe61017f565b604051600582901b90603f8201601f191681016001600160401b038111828210171561022c5761022c61017f565b604052918252602081840181019290810189841115610249575f5ffd5b6020850194505b8385101561026f5761026185610193565b815260209485019401610250565b50602088015160409098015190999798509695505050505050565b634e487b7160e01b5f52603260045260245ffd5b611cd0806102ab5f395ff3fe60806040526004361061013f575f3560e01c8063565cdd21116100b3578063b5ce02ae1161006d578063b5ce02ae1461038d578063bf11c89c146103ac578063c9d27afe146103da578063ca6d56dc146103f9578063f2fde38b14610418578063fe0d94c114610437575f5ffd5b8063565cdd21146102ba57806364bd0cb2146102f1578063715018a6146103105780638da5cb5b146103245780639a4a0fb214610340578063a230c5241461035f575f5ffd5b806334c146791161010457806334c14679146101f55780634385963214610214578063485b9a401461025d57806348f545c2146102715780634fa76ec91461029057806354f2ba65146102a5575f5ffd5b8063013cf08b1461014a57806302a251a3146101875780630b1ca49a146101aa57806311aee380146101cb5780632ab09d14146101e0575f5ffd5b3661014657005b5f5ffd5b348015610155575f5ffd5b50610169610164366004611511565b610456565b60405161017e99989796959493929190611556565b60405180910390f35b348015610192575f5ffd5b5061019c60065481565b60405190815260200161017e565b3480156101b5575f5ffd5b506101c96101c43660046115e8565b6105c5565b005b3480156101d6575f5ffd5b5061019c60025481565b3480156101eb575f5ffd5b5061019c60035481565b348015610200575f5ffd5b506101c961020f366004611511565b610675565b34801561021f575f5ffd5b5061024d61022e366004611608565b600560209081525f928352604080842090915290825290205460ff1681565b604051901515815260200161017e565b348015610268575f5ffd5b506101c96106d1565b34801561027c575f5ffd5b506101c961028b3660046115e8565b6108df565b34801561029b575f5ffd5b5061019c60075481565b3480156102b0575f5ffd5b5061019c600b5481565b3480156102c5575f5ffd5b506008546102d9906001600160a01b031681565b6040516001600160a01b03909116815260200161017e565b3480156102fc575f5ffd5b506101c961030b3660046116d9565b610958565b34801561031b575f5ffd5b506101c9610b0c565b34801561032f575f5ffd5b505f546001600160a01b03166102d9565b34801561034b575f5ffd5b506009546102d9906001600160a01b031681565b34801561036a575f5ffd5b5061024d6103793660046115e8565b60016020525f908152604090205460ff1681565b348015610398575f5ffd5b506101c96103a73660046115e8565b610b1f565b3480156103b7575f5ffd5b5061024d6103c6366004611511565b600a6020525f908152604090205460ff1681565b3480156103e5575f5ffd5b506101c96103f4366004611773565b610b9f565b348015610404575f5ffd5b506101c96104133660046115e8565b610d1f565b348015610423575f5ffd5b506101c96104323660046115e8565b610def565b348015610442575f5ffd5b506101c9610451366004611511565b610e2c565b60046020525f908152604090208054600182015460028301805492936001600160a01b0390921692610487906117a5565b80601f01602080910402602001604051908101604052809291908181526020018280546104b3906117a5565b80156104fe5780601f106104d5576101008083540402835291602001916104fe565b820191905f5260205f20905b8154815290600101906020018083116104e157829003601f168201915b505050600384015460048501805494956001600160a01b03909216949193509150610528906117a5565b80601f0160208091040260200160405190810160405280929190818152602001828054610554906117a5565b801561059f5780601f106105765761010080835404028352916020019161059f565b820191905f5260205f20905b81548152906001019060200180831161058257829003601f168201915b505050506005830154600684015460078501546008909501549394919390925060ff1689565b6105cd611094565b6001600160a01b0381165f9081526001602052604090205460ff1661060d5760405162461bcd60e51b8152600401610604906117dd565b60405180910390fd5b6001600160a01b0381165f908152600160205260408120805460ff19169055600280549161063a83611817565b90915550506040516001600160a01b038216907f6e76fb4c77256006d9c38ec7d82b45a8c8f3c27b1d6766fffc42dfb8de684492905f90a250565b61067d611094565b5f81116106cc5760405162461bcd60e51b815260206004820152601d60248201527f416d6f756e74206d7573742062652067726561746572207468616e20300000006044820152606401610604565b600b55565b6008546001600160a01b03166107215760405162461bcd60e51b815260206004820152601560248201527414d9585cdbdb881bdc9858db19481b9bdd081cd95d605a1b6044820152606401610604565b6009546001600160a01b03166107705760405162461bcd60e51b815260206004820152601460248201527310d95b9d1c985b0818985b9ac81b9bdd081cd95d60621b6044820152606401610604565b6008546040805163d3b30b7560e01b815290515f926001600160a01b03169163d3b30b75916004808301926060929190829003018187875af11580156107b8573d5f5f3e3d5ffd5b505050506040513d601f19601f820116820180604052508101906107dc919061183a565b505090505f60085f9054906101000a90046001600160a01b03166001600160a01b0316630a76e4376040518163ffffffff1660e01b81526004015f60405180830381865afa158015610830573d5f5f3e3d5ffd5b505050506040513d5f823e601f3d908101601f1916820160405261085791908101906118b9565b5050505f828152600a60205260409020549194505060ff161591506108d190505760405162461bcd60e51b815260206004820152602860248201527f50726f706f73616c20616c7265616479206372656174656420666f7220746869604482015267399039b2b0b9b7b760c11b6064820152608401610604565b6108db82826110c0565b5050565b6108e7611094565b6001600160a01b0381166109365760405162461bcd60e51b8152602060048201526016602482015275496e76616c6964206f7261636c65206164647265737360501b6044820152606401610604565b600880546001600160a01b0319166001600160a01b0392909216919091179055565b335f9081526001602052604090205460ff166109865760405162461bcd60e51b8152600401610604906117dd565b60035460408051610120810182528281523360208201529081018390526001600160a01b03851660608201526080810184905260065460a08201906109cb9042611930565b81525f602080830182905260408084018390526060909301829052848252600481529082902083518155908301516001820180546001600160a01b0319166001600160a01b03909216919091179055908201516002820190610a2d9082611995565b5060608201516003820180546001600160a01b0319166001600160a01b0390921691909117905560808201516004820190610a689082611995565b5060a0820151600582015560c0820151600682015560e08201516007820155610100909101516008909101805460ff191691151591909117905560038054905f610ab183611a50565b90915550505f818152600460205260409081902060050154905133917f36ef39b15ae87208645c010139b1c8b7b25a358bb68989fefcc82b1e0754bcbd91610afe91859187918a91611a68565b60405180910390a250505050565b610b14611094565b610b1d5f6113bd565b565b610b27611094565b6001600160a01b038116610b7d5760405162461bcd60e51b815260206004820152601c60248201527f496e76616c69642063656e7472616c2062616e6b2061646472657373000000006044820152606401610604565b600980546001600160a01b0319166001600160a01b0392909216919091179055565b335f9081526001602052604090205460ff16610bcd5760405162461bcd60e51b8152600401610604906117dd565b5f82815260046020526040902060058101544210610c2d5760405162461bcd60e51b815260206004820152601760248201527f566f74696e6720706572696f642068617320656e6465640000000000000000006044820152606401610604565b5f83815260056020908152604080832033845290915290205460ff1615610c865760405162461bcd60e51b815260206004820152600d60248201526c105b1c9958591e481d9bdd1959609a1b6044820152606401610604565b5f8381526005602090815260408083203384529091529020805460ff191660011790558115610cca57600681018054905f610cc083611a50565b9190505550610ce1565b600781018054905f610cdb83611a50565b91905055505b6040518215158152339084907ff2913dbe661ee2acc4a046d8fbcdc792373bda34c41c6086484b5345e5785e5f9060200160405180910390a3505050565b610d27611094565b6001600160a01b0381165f9081526001602052604090205460ff1615610d825760405162461bcd60e51b815260206004820152601060248201526f20b63932b0b23c90309036b2b6b132b960811b6044820152606401610604565b6001600160a01b0381165f9081526001602081905260408220805460ff191690911790556002805491610db483611a50565b90915550506040516001600160a01b038216907fb251eb052afc73ffd02ffe85ad79990a8b3fed60d76dbc2fa2fdd7123dffd914905f90a250565b610df7611094565b6001600160a01b038116610e2057604051631e4fbdf760e01b81525f6004820152602401610604565b610e29816113bd565b50565b5f8181526004602052604090206005810154421015610e8d5760405162461bcd60e51b815260206004820152601f60248201527f566f74696e6720706572696f6420686173206e6f7420656e64656420796574006044820152606401610604565b600881015460ff1615610ee25760405162461bcd60e51b815260206004820152601960248201527f50726f706f73616c20616c7265616479206578656375746564000000000000006044820152606401610604565b5f81600701548260060154610ef79190611930565b90506007548183600601546064610f0e9190611a9c565b610f189190611ac7565b1015610f5b5760405162461bcd60e51b8152602060048201526012602482015271145d5bdc9d5b481b9bdd081c995858da195960721b6044820152606401610604565b8160070154826006015411610fa45760405162461bcd60e51b815260206004820152600f60248201526e141c9bdc1bdcd85b0819985a5b1959608a1b6044820152606401610604565b60088201805460ff1916600117905560038201546040515f916001600160a01b031690610fd5906004860190611ada565b5f604051808303815f865af19150503d805f811461100e576040519150601f19603f3d011682016040523d82523d5f602084013e611013565b606091505b50509050806110645760405162461bcd60e51b815260206004820152601960248201527f50726f706f73616c20657865637574696f6e206661696c6564000000000000006044820152606401610604565b60405184907f712ae1383f79ac853f8d882153778e0260ef8f03b504e2866e0593e04d2b291f905f90a250505050565b5f546001600160a01b03163314610b1d5760405163118cdaa760e01b8152336004820152602401610604565b5f600b546040516024016110d691815260200190565b60408051601f198184030181529181526020820180516001600160e01b03166317206b6760e31b1790526008549051633b22da0960e01b81529192505f916001600160a01b0390911690633b22da0990611134908790600401611b5f565b5f60405180830381865afa15801561114e573d5f5f3e3d5ffd5b505050506040513d5f823e601f3d908101601f191682016040526111759190810190611b85565b90505f6111818461140c565b826111a0670de0b6b3a7640000600b5461119b9190611ac7565b61140c565b6040516020016111b293929190611bce565b60408051601f19818403018152600354610120840183528084523060208501529183018190526009546001600160a01b031660608401526080830186905260065490935090919060a08201906112089042611930565b81525f602080830182905260408084018390526060909301829052848252600481529082902083518155908301516001820180546001600160a01b0319166001600160a01b0390921691909117905590820151600282019061126a9082611995565b5060608201516003820180546001600160a01b0319166001600160a01b03909216919091179055608082015160048201906112a59082611995565b5060a0820151600582015560c0820151600682015560e08201516007820155610100909101516008909101805460ff191691151591909117905560038054905f6112ee83611a50565b90915550505f858152600a60209081526040808320805460ff1916600117905560095484845260049092529182902060050154915130927f36ef39b15ae87208645c010139b1c8b7b25a358bb68989fefcc82b1e0754bcbd9261135e92869288926001600160a01b031691611a68565b60405180910390a28486600381111561137957611379611b4b565b827ff3b116715b388264be92218ceed307eb97053c2fd746f4523585d1a79acb696b600b546040516113ad91815260200190565b60405180910390a4505050505050565b5f80546001600160a01b038381166001600160a01b0319831681178455604051919092169283917f8be0079c531659141344cd1fd0a4f28419497f9722a3daafe3b4186f6b6457e09190a35050565b6060815f036114325750506040805180820190915260018152600360fc1b602082015290565b815f5b811561145b578061144581611a50565b91506114549050600a83611ac7565b9150611435565b5f8167ffffffffffffffff81111561147557611475611632565b6040519080825280601f01601f19166020018201604052801561149f576020820181803683370190505b5090505b8415611509576114b4600183611c60565b91506114c1600a86611c73565b6114cc906030611930565b60f81b8183815181106114e1576114e1611c86565b60200101906001600160f81b03191690815f1a905350611502600a86611ac7565b94506114a3565b949350505050565b5f60208284031215611521575f5ffd5b5035919050565b5f81518084528060208401602086015e5f602082860101526020601f19601f83011685010191505092915050565b8981526001600160a01b0389166020820152610120604082018190525f906115809083018a611528565b6001600160a01b038916606084015282810360808401526115a18189611528565b9150508560a08301528460c08301528360e08301528215156101008301529a9950505050505050505050565b80356001600160a01b03811681146115e3575f5ffd5b919050565b5f602082840312156115f8575f5ffd5b611601826115cd565b9392505050565b5f5f60408385031215611619575f5ffd5b82359150611629602084016115cd565b90509250929050565b634e487b7160e01b5f52604160045260245ffd5b604051601f8201601f1916810167ffffffffffffffff8111828210171561166f5761166f611632565b604052919050565b5f67ffffffffffffffff82111561169057611690611632565b50601f01601f191660200190565b5f6116b06116ab84611677565b611646565b90508281528383830111156116c3575f5ffd5b828260208301375f602084830101529392505050565b5f5f5f606084860312156116eb575f5ffd5b6116f4846115cd565b9250602084013567ffffffffffffffff81111561170f575f5ffd5b8401601f8101861361171f575f5ffd5b61172e8682356020840161169e565b925050604084013567ffffffffffffffff81111561174a575f5ffd5b8401601f8101861361175a575f5ffd5b6117698682356020840161169e565b9150509250925092565b5f5f60408385031215611784575f5ffd5b823591506020830135801515811461179a575f5ffd5b809150509250929050565b600181811c908216806117b957607f821691505b6020821081036117d757634e487b7160e01b5f52602260045260245ffd5b50919050565b6020808252600c908201526b2737ba10309036b2b6b132b960a11b604082015260600190565b634e487b7160e01b5f52601160045260245ffd5b5f8161182557611825611803565b505f190190565b8051600481106115e3575f5ffd5b5f5f5f6060848603121561184c575f5ffd5b6118558461182c565b602085015160409095015190969495509392505050565b5f82601f83011261187b575f5ffd5b81516118896116ab82611677565b81815284602083860101111561189d575f5ffd5b8160208501602083015e5f918101602001919091529392505050565b5f5f5f5f5f5f5f60e0888a0312156118cf575f5ffd5b6118d88861182c565b9650602088015167ffffffffffffffff8111156118f3575f5ffd5b6118ff8a828b0161186c565b60408a015160608b015160808c015160a08d015160c0909d01519b9e939d50919b909a919950975095509350505050565b8082018082111561194357611943611803565b92915050565b601f82111561199057805f5260205f20601f840160051c8101602085101561196e5750805b601f840160051c820191505b8181101561198d575f815560010161197a565b50505b505050565b815167ffffffffffffffff8111156119af576119af611632565b6119c3816119bd84546117a5565b84611949565b6020601f8211600181146119f5575f83156119de5750848201515b5f19600385901b1c1916600184901b17845561198d565b5f84815260208120601f198516915b82811015611a245787850151825560209485019460019092019101611a04565b5084821015611a4157868401515f19600387901b60f8161c191681555b50505050600190811b01905550565b5f60018201611a6157611a61611803565b5060010190565b848152608060208201525f611a806080830186611528565b6001600160a01b03949094166040830152506060015292915050565b808202811582820484141761194357611943611803565b634e487b7160e01b5f52601260045260245ffd5b5f82611ad557611ad5611ab3565b500490565b5f5f8354611ae7816117a5565b600182168015611afe5760018114611b1357611b40565b60ff1983168652811515820286019350611b40565b865f5260205f205f5b83811015611b3857815488820152600190910190602001611b1c565b505081860193505b509195945050505050565b634e487b7160e01b5f52602160045260245ffd5b6020810160048310611b7f57634e487b7160e01b5f52602160045260245ffd5b91905290565b5f60208284031215611b95575f5ffd5b815167ffffffffffffffff811115611bab575f5ffd5b6115098482850161186c565b5f81518060208401855e5f93019283525090919050565b66029b2b0b9b7b7160cd1b81525f611be96007830186611bb7565b61040560f31b8152611bfe6002820186611bb7565b90507f29204d696e74696e672050726f706f73616c3a204973737565200000000000008152611c30601a820185611bb7565b7f20746f6b656e7320746f2073746174652074726561737572790000000000000081526019019695505050505050565b8181038181111561194357611943611803565b5f82611c8157611c81611ab3565b500690565b634e487b7160e01b5f52603260045260245ffdfea26469706673582212209bdb47fde50fa3bea6aee21357babe8fbc8aa76f5a23b39f54dfc549f640848d64736f6c634300081c0033",
  "linkReferences": {},
  "deployedLinkReferences": {},
  "immutableReferences": {},
  "inputSourceName": "project/contracts/governance/StateDAO.sol",
  "buildInfoId": "solc-0_8_28-fbd4f57456b8bc7335f396172c535a61472c2a89"
}