{
  "_format": "hh3-artifact-1",
  "contractName": "CentralBank",
  "sourceName": "contracts/economy/CentralBank.sol",
  "abi": [
    {
      "inputs": [
        {
          "internalType": "contract StateDAO",
          "name": "_stateDao",
          "type": "address"
        },
        {
          "internalType": "contract NationalCurrency",
          "name": "_currencyAddress",
          "type": "address"
        },
        {
          "internalType": "address",
          "name": "_goldAddress",
          "type": "address"
        }
      ],
      "stateMutability": "nonpayable",
      "type": "constructor"
    },
    {
      "inputs": [
        {
          "internalType": "address",
          "name": "owner",
          "type": "address"
        }
      ],
      "name": "OwnableInvalidOwner",
      "type": "error"
    },
    {
      "inputs": [
        {
          "internalType": "address",
          "name": "account",
          "type": "address"
        }
      ],
      "name": "OwnableUnauthorizedAccount",
      "type": "error"
    },
    {
      "anonymous": false,
      "inputs": [
        {
          "indexed": true,
          "internalType": "address",
          "name": "previousOwner",
          "type": "address"
        },
        {
          "indexed": true,
          "internalType": "address",
          "name": "newOwner",
          "type": "address"
        }
      ],
      "name": "OwnershipTransferred",
      "type": "event"
    },
    {
      "inputs": [
        {
          "internalType": "uint256",
          "name": "currencyAmount",
          "type": "uint256"
        },
        {
          "internalType": "uint256",
          "name": "goldAmount",
          "type": "uint256"
        }
      ],
      "name": "addLiquidity",
      "outputs": [],
      "stateMutability": "nonpayable",
      "type": "function"
    },
    {
      "inputs": [],
      "name": "goldOnL1",
      "outputs": [
        {
          "internalType": "contract IERC20",
          "name": "",
          "type": "address"
        }
      ],
      "stateMutability": "view",
      "type": "function"
    },
    {
      "inputs": [
        {
          "internalType": "uint256",
          "name": "amount",
          "type": "uint256"
        }
      ],
      "name": "issueCurrency",
      "outputs": [],
      "stateMutability": "nonpayable",
      "type": "function"
    },
    {
      "inputs": [],
      "name": "nationalCurrency",
      "outputs": [
        {
          "internalType": "contract NationalCurrency",
          "name": "",
          "type": "address"
        }
      ],
      "stateMutability": "view",
      "type": "function"
    },
    {
      "inputs": [],
      "name": "owner",
      "outputs": [
        {
          "internalType": "address",
          "name": "",
          "type": "address"
        }
      ],
      "stateMutability": "view",
      "type": "function"
    },
    {
      "inputs": [],
      "name": "renounceOwnership",
      "outputs": [],
      "stateMutability": "nonpayable",
      "type": "function"
    },
    {
      "inputs": [],
      "name": "stateDao",
      "outputs": [
        {
          "internalType": "contract StateDAO",
          "name": "",
          "type": "address"
        }
      ],
      "stateMutability": "view",
      "type": "function"
    },
    {
      "inputs": [
        {
          "internalType": "uint256",
          "name": "amount",
          "type": "uint256"
        }
      ],
      "name": "swapCurrencyToGold",
      "outputs": [],
      "stateMutability": "nonpayable",
      "type": "function"
    },
    {
      "inputs": [
        {
          "internalType": "address",
          "name": "newOwner",
          "type": "address"
        }
      ],
      "name": "transferOwnership",
      "outputs": [],
      "stateMutability": "nonpayable",
      "type": "function"
    }
  ],
  "bytecode": "0x608060405234801561000f575f5ffd5b5060405161047d38038061047d83398101604081905261002e91610105565b338061005357604051631e4fbdf760e01b81525f600482015260240160405180910390fd5b61005c8161009f565b50600380546001600160a01b039485166001600160a01b03199182161790915560028054938516938216939093179092556001805491909316911617905561014f565b5f80546001600160a01b038381166001600160a01b0319831681178455604051919092169283917f8be0079c531659141344cd1fd0a4f28419497f9722a3daafe3b4186f6b6457e09190a35050565b6001600160a01b0381168114610102575f5ffd5b50565b5f5f5f60608486031215610117575f5ffd5b8351610122816100ee565b6020850151909350610133816100ee565b6040850151909250610144816100ee565b809150509250925092565b6103218061015c5f395ff3fe608060405234801561000f575f5ffd5b5060043610610090575f3560e01c80639cd441da116100635780639cd441da146100ee578063b9035b3814610100578063db07d78514610113578063f2fde38b14610126578063faa47ec914610139575f5ffd5b806346e4d5b9146100945780634edd6798146100a7578063715018a6146100d65780638da5cb5b146100de575b5f5ffd5b6100a56100a2366004610287565b50565b005b6001546100ba906001600160a01b031681565b6040516001600160a01b03909116815260200160405180910390f35b6100a561014c565b5f546001600160a01b03166100ba565b6100a56100fc36600461029e565b5050565b6100a561010e366004610287565b61015f565b6002546100ba906001600160a01b031681565b6100a56101343660046102be565b6101cd565b6003546100ba906001600160a01b031681565b61015461020c565b61015d5f610238565b565b61016761020c565b6002546003546040516340c10f1960e01b81526001600160a01b039182166004820152602481018490529116906340c10f19906044015f604051808303815f87803b1580156101b4575f5ffd5b505af11580156101c6573d5f5f3e3d5ffd5b5050505050565b6101d561020c565b6001600160a01b03811661020357604051631e4fbdf760e01b81525f60048201526024015b60405180910390fd5b6100a281610238565b5f546001600160a01b0316331461015d5760405163118cdaa760e01b81523360048201526024016101fa565b5f80546001600160a01b038381166001600160a01b0319831681178455604051919092169283917f8be0079c531659141344cd1fd0a4f28419497f9722a3daafe3b4186f6b6457e09190a35050565b5f60208284031215610297575f5ffd5b5035919050565b5f5f604083850312156102af575f5ffd5b50508035926020909101359150565b5f602082840312156102ce575f5ffd5b81356001600160a01b03811681146102e4575f5ffd5b939250505056fea26469706673582212200b1865da4b050ca01bd8ffa7e537a9004a5d8c6813c48d24564866c8105869b664736f6c634300081c0033",
  "linkReferences": {},
  "deployedLinkReferences": {},
  "immutableReferences": {},
  "inputSourceName": "project/contracts/economy/CentralBank.sol",
  "buildInfoId": "solc-0_8_28-4e4ab0de7e0c70f27ff89227b66ccf2b99fd10b4"
}