{
  "_format": "hh3-artifact-1",
  "contractName": "CentralBank",
  "sourceName": "contracts/economy/CentralBank.sol",
  "abi": [
    {
      "inputs": [
        {
          "internalType": "contract StateDAO",
          "name": "_stateDao",
          "type": "address"
        },
        {
          "internalType": "contract NationalCurrency",
          "name": "_currencyAddress",
          "type": "address"
        },
        {
          "internalType": "address",
          "name": "_goldAddress",
          "type": "address"
        }
      ],
      "stateMutability": "nonpayable",
      "type": "constructor"
    },
    {
      "inputs": [
        {
          "internalType": "address",
          "name": "owner",
          "type": "address"
        }
      ],
      "name": "OwnableInvalidOwner",
      "type": "error"
    },
    {
      "inputs": [
        {
          "internalType": "address",
          "name": "account",
          "type": "address"
        }
      ],
      "name": "OwnableUnauthorizedAccount",
      "type": "error"
    },
    {
      "anonymous": false,
      "inputs": [
        {
          "indexed": true,
          "internalType": "address",
          "name": "to",
          "type": "address"
        },
        {
          "indexed": false,
          "internalType": "uint256",
          "name": "amount",
          "type": "uint256"
        }
      ],
      "name": "CurrencyIssued",
      "type": "event"
    },
    {
      "anonymous": false,
      "inputs": [
        {
          "indexed": true,
          "internalType": "address",
          "name": "provider",
          "type": "address"
        },
        {
          "indexed": false,
          "internalType": "uint256",
          "name": "currencyAmount",
          "type": "uint256"
        },
        {
          "indexed": false,
          "internalType": "uint256",
          "name": "goldAmount",
          "type": "uint256"
        }
      ],
      "name": "LiquidityAdded",
      "type": "event"
    },
    {
      "anonymous": false,
      "inputs": [
        {
          "indexed": true,
          "internalType": "address",
          "name": "previousOwner",
          "type": "address"
        },
        {
          "indexed": true,
          "internalType": "address",
          "name": "newOwner",
          "type": "address"
        }
      ],
      "name": "OwnershipTransferred",
      "type": "event"
    },
    {
      "anonymous": false,
      "inputs": [
        {
          "indexed": true,
          "internalType": "address",
          "name": "user",
          "type": "address"
        },
        {
          "indexed": false,
          "internalType": "uint256",
          "name": "currencyAmount",
          "type": "uint256"
        },
        {
          "indexed": false,
          "internalType": "uint256",
          "name": "goldReceived",
          "type": "uint256"
        }
      ],
      "name": "SwappedCurrencyToGold",
      "type": "event"
    },
    {
      "inputs": [
        {
          "internalType": "uint256",
          "name": "currencyAmount",
          "type": "uint256"
        },
        {
          "internalType": "uint256",
          "name": "goldAmount",
          "type": "uint256"
        }
      ],
      "name": "addLiquidity",
      "outputs": [],
      "stateMutability": "nonpayable",
      "type": "function"
    },
    {
      "inputs": [],
      "name": "goldOnL1",
      "outputs": [
        {
          "internalType": "contract IERC20",
          "name": "",
          "type": "address"
        }
      ],
      "stateMutability": "view",
      "type": "function"
    },
    {
      "inputs": [
        {
          "internalType": "uint256",
          "name": "amount",
          "type": "uint256"
        }
      ],
      "name": "issueCurrency",
      "outputs": [],
      "stateMutability": "nonpayable",
      "type": "function"
    },
    {
      "inputs": [],
      "name": "nationalCurrency",
      "outputs": [
        {
          "internalType": "contract NationalCurrency",
          "name": "",
          "type": "address"
        }
      ],
      "stateMutability": "view",
      "type": "function"
    },
    {
      "inputs": [],
      "name": "owner",
      "outputs": [
        {
          "internalType": "address",
          "name": "",
          "type": "address"
        }
      ],
      "stateMutability": "view",
      "type": "function"
    },
    {
      "inputs": [],
      "name": "renounceOwnership",
      "outputs": [],
      "stateMutability": "nonpayable",
      "type": "function"
    },
    {
      "inputs": [],
      "name": "stateDao",
      "outputs": [
        {
          "internalType": "contract StateDAO",
          "name": "",
          "type": "address"
        }
      ],
      "stateMutability": "view",
      "type": "function"
    },
    {
      "inputs": [
        {
          "internalType": "uint256",
          "name": "amount",
          "type": "uint256"
        }
      ],
      "name": "swapCurrencyToGold",
      "outputs": [],
      "stateMutability": "nonpayable",
      "type": "function"
    },
    {
      "inputs": [
        {
          "internalType": "address",
          "name": "newOwner",
          "type": "address"
        }
      ],
      "name": "transferOwnership",
      "outputs": [],
      "stateMutability": "nonpayable",
      "type": "function"
    }
  ],
  "bytecode": "0x608060405234801561000f575f5ffd5b506040516107bc3803806107bc83398101604081905261002e91610105565b338061005357604051631e4fbdf760e01b81525f600482015260240160405180910390fd5b61005c8161009f565b50600380546001600160a01b039485166001600160a01b03199182161790915560028054938516938216939093179092556001805491909316911617905561014f565b5f80546001600160a01b038381166001600160a01b0319831681178455604051919092169283917f8be0079c531659141344cd1fd0a4f28419497f9722a3daafe3b4186f6b6457e09190a35050565b6001600160a01b0381168114610102575f5ffd5b50565b5f5f5f60608486031215610117575f5ffd5b8351610122816100ee565b6020850151909350610133816100ee565b6040850151909250610144816100ee565b809150509250925092565b6106608061015c5f395ff3fe608060405234801561000f575f5ffd5b5060043610610090575f3560e01c80639cd441da116100635780639cd441da146100f0578063b9035b3814610103578063db07d78514610116578063f2fde38b14610129578063faa47ec91461013c575f5ffd5b806346e4d5b9146100945780634edd6798146100a9578063715018a6146100d85780638da5cb5b146100e0575b5f5ffd5b6100a76100a2366004610588565b61014f565b005b6001546100bc906001600160a01b031681565b6040516001600160a01b03909116815260200160405180910390f35b6100a7610256565b5f546001600160a01b03166100bc565b6100a76100fe36600461059f565b610269565b6100a7610111366004610588565b610420565b6002546100bc906001600160a01b031681565b6100a76101373660046105bf565b6104d0565b6003546100bc906001600160a01b031681565b5f61015b600a836105ec565b60015460405163a9059cbb60e01b8152336004820152602481018390529192506001600160a01b03169063a9059cbb906044016020604051808303815f875af11580156101aa573d5f5f3e3d5ffd5b505050506040513d601f19601f820116820180604052508101906101ce919061060b565b6102165760405162461bcd60e51b815260206004820152601460248201527311dbdb19081d1c985b9cd9995c8819985a5b195960621b60448201526064015b60405180910390fd5b604080518381526020810183905233917fbe295cc655b91a17d7bbe65246c881f80a5039fa797764ad48b126f4278b391691015b60405180910390a25050565b61025e61050d565b6102675f610539565b565b6002546040516323b872dd60e01b8152336004820152306024820152604481018490526001600160a01b03909116906323b872dd906064016020604051808303815f875af11580156102bd573d5f5f3e3d5ffd5b505050506040513d601f19601f820116820180604052508101906102e1919061060b565b61032d5760405162461bcd60e51b815260206004820152601860248201527f43757272656e6379207472616e73666572206661696c65640000000000000000604482015260640161020d565b6001546040516323b872dd60e01b8152336004820152306024820152604481018390526001600160a01b03909116906323b872dd906064016020604051808303815f875af1158015610381573d5f5f3e3d5ffd5b505050506040513d601f19601f820116820180604052508101906103a5919061060b565b6103e85760405162461bcd60e51b815260206004820152601460248201527311dbdb19081d1c985b9cd9995c8819985a5b195960621b604482015260640161020d565b604080518381526020810183905233917fac1d76749e5447b7b16f5ab61447e1bd502f3bb4807af3b28e620d1700a6ee45910161024a565b61042861050d565b6003546040518281526001600160a01b03909116907f14b74df0dd76fba072f069cadd03c8f02bf133da8e08db2669879ed971d0cbdd9060200160405180910390a26002546003546040516340c10f1960e01b81526001600160a01b039182166004820152602481018490529116906340c10f19906044015f604051808303815f87803b1580156104b7575f5ffd5b505af11580156104c9573d5f5f3e3d5ffd5b5050505050565b6104d861050d565b6001600160a01b03811661050157604051631e4fbdf760e01b81525f600482015260240161020d565b61050a81610539565b50565b5f546001600160a01b031633146102675760405163118cdaa760e01b815233600482015260240161020d565b5f80546001600160a01b038381166001600160a01b0319831681178455604051919092169283917f8be0079c531659141344cd1fd0a4f28419497f9722a3daafe3b4186f6b6457e09190a35050565b5f60208284031215610598575f5ffd5b5035919050565b5f5f604083850312156105b0575f5ffd5b50508035926020909101359150565b5f602082840312156105cf575f5ffd5b81356001600160a01b03811681146105e5575f5ffd5b9392505050565b5f8261060657634e487b7160e01b5f52601260045260245ffd5b500490565b5f6020828403121561061b575f5ffd5b815180151581146105e5575f5ffdfea2646970667358221220e06f0a549a63692038281b5e8fa05327346a3b75338ddc03179b770709db7c8064736f6c634300081c0033",
  "linkReferences": {},
  "deployedLinkReferences": {},
  "immutableReferences": {},
  "inputSourceName": "project/contracts/economy/CentralBank.sol",
  "buildInfoId": "solc-0_8_28-237dd509cf09bc8796eda090f453c0f76295b8d8"
}